:100000000C94B1000C94CE000C94CE000C94CE0055
:100010000C94CE000C94CE000C94CE000C94CE0028
:100020000C94CE000C94CE000C94CE000C94EA00FC
:100030000C94CE000C94CE000C94CE000C94CE0008
:100040000C94CE000C94CE000C94CE000C94CE00F8
:100050000C94CE000C94FF000C94CE000C94CE00B7
:100060000C94CE000C94CE0000407A10F35A00A0FD
:10007000724E18090010A5D4E80000E87648170071
:1000800000E40B54020000CA9A3B000000E1F505B1
:10009000000080969800000040420F000000A086FB
:1000A00001000000102700000000E803000000002D
:1000B0006400000000000A000000000001000000D1
:1000C00000002C76D888DC674F0823DFC1DFAE59EB
:1000D000E1B1B796E5E3E453C63AE651997696E87E
:1000E000E6C28426EB898C9B62ED407C6FFCEFBC02
:1000F0009C9F40F2BAA56FA5F490055A2AF75C932D
:100100006B6CF9676DC11BFCE0E40D47FEF520E662
:10011000B500D0ED902E0300943577050080841E45
:10012000080000204E0A000000C80C333333330FA0
:10013000986E12831141EF8D2114893BE65516CF3D
:10014000FEE6DB18D1844B381BF77C1D901DA4BB49
:10015000E424203284725E228100C9F124ECA1E5FE
:100160003D2711241FBECFEFD8E0DEBFCDBF13E087
:10017000A0E0B1E0E6E2F9E102C005900D92AA30FC
:10018000B107D9F726E0AAE0B3E001C01D92AC3375
:10019000B207E1F70E94DD010C94910C0C94000071
:1001A000109280008BE08093810089EF90E0909323
:1001B00089008093880082E086BBEFE6F0E08081D2
:1001C00082608083089580E480937C008FE8809330
:1001D0007A0008951F920F920FB60F9211248F93F9
:1001E000EF93FF93EAE7F0E0808180648083FF91E2
:1001F000EF918F910F900FBE0F901F9018951F9247
:100200000F920FB60F9211248F939F93EF93FF934A
:1002100080910F03843610F5E0910F0381E08E0F7B
:1002200080930F03F0E08091780090917900EE0FB9
:10023000FF1FE05FFA4F9183808380910F03843624
:1002400068F081E080930E0380916F008D7F809332
:100250006F0080917A008F7780937A00FF91EF9101
:100260009F918F910F900FBE0F901F901895CF9276
:10027000DF92EF92FF92CF93C62F21E0FC014081E5
:1002800051814115524008F420E0FC01329681E092
:1002900060E070E08C1770F44191519191E041154C
:1002A000524008F490E0291711F06F5F7F4F8F5F85
:1002B000292FF0CF80E090E00E94280620E030E077
:1002C00040E05FE30E94DA066B017C016C2F70E076
:1002D00080E090E00E9428069B01AC0160E070E0A5
:1002E0008AE794E40E94B6059B01AC01C701B60100
:1002F0000E94DA06CF91FF90EF90DF90CF900895A3
:10030000CF92DF92EF92FF920F931F93CF93DF93E1
:10031000CDB7DEB7C85CD1090FB6F894DEBF0FBE0B
:10032000CDBFF62E8C01FE013196DC0180E0EE2E71
:10033000DF2E8F1531F02D913D91219331938F5FF9
:10034000F8CFA0E0AF1549F1A53018F03CEF3A0F17
:1003500001C030E0CC24C394CA0E2C2D231B60E0D6
:1003600070E0CB01A31770F0EE2DFD2DE30FF11D12
:10037000E30FF11D40815181640F751F811D911D97
:100380003F5FF0CF30E040E050E00E942205F801EE
:10039000219331938F01AC2DD5CFC853DF4F0FB6CA
:1003A000F894DEBF0FBECDBFDF91CF911F910F91AB
:1003B000FF90EF90DF90CF900895CF93DF93CDB76C
:1003C000DEB7E8970FB6F894DEBF0FBECDBF389802
:1003D0000E94A8030E946A030E9475030E94E30022
:1003E0007894DD24D394CE018D969CAB8BABFE012B
:1003F000B796FEABEDAB0C9798AF8FAB70E2372E94
:10040000B6977F0110920F0310920E0380917A002D
:10041000886880937A0080917A00806180937A0066
:10042000F2E0F6BB0E94D00080910E038823E1F336
:1004300020E030E040EA50E464E680E195E00E948C
:1004400037014B015C0164E680E195E00E94800188
:1004500020E030E0A901440F551FFA01E05FFA4F98
:1004600080819181925097FF02C080E090E0FA0174
:10047000E05FFA4F918380832F5F3F4F2436310531
:1004800049F780E090E060E070E0FC01EE0FFF1FB4
:10049000DF01A05FBA4F2D913C911197621773074E
:1004A00010F46D917C91E05FFA4F208131812081C1
:1004B000318101968436910541F700910B03CC24DC
:1004C000C394C00EC0920B0324E0029F800111244C
:1004D000085D194F80E090E00E9428062AE038E28B
:1004E00040EA5BE30E94DA06F8016083718382834D
:1004F0009383F4E0FC1520F410920B03D0920A03CE
:1005000080910A03811103C020900B0302C095E083
:10051000292E08E216E0C12C412C512C3201C214C4
:1005200071F0F80121913191419151918F01C301F5
:10053000B2010E9445052B013C01C394F0CF00910C
:100540000D0322242394200E20920D03F4E00F9F2C
:100550008001112408521A4F6C2D70E080E090E069
:100560000E942A069B01AC01C301B2010E94B6059C
:10057000F8016083718382839383F3E1F21520F4A1
:1005800010920D03D0920C0380910C03811103C0D3
:1005900020900D0302C084E1282E08ED15E0C12C47
:1005A000412C512C3201C21471F0F801219131918A
:1005B000419151918F01C301B2010E9445052B0168
:1005C0003C01C394F0CF6C2D70E080E090E00E947D
:1005D0002A069B01AC01C301B2010E94B60523E2C9
:1005E0003BED4EE852E40E94DA062B013C0124EF79
:1005F0003DEF44E35FE30E94DA068E01035D1F4F87
:1006000021E040E00E9447070650110921E040E048
:10061000C301B2010E9447070650110921E040E0E2
:10062000C501B4010E944707FEA9FF932DA92F938E
:100630008CA98F939BA99F93E0E0F1E0FF93EF9348
:100640001F923F92FF92EF920E9467070E946A03F7
:1006500021E046E051E060E080E00E942C0422E0CE
:10066000A70168E080E00E942C0488AD8F939FA9C9
:100670009F93EBE1F1E0FF93EF931F923F92FF9284
:10068000EF920E94670721E0A70168E180E00E94E5
:100690002C040E9475038FEF93ECE9E081509040A9
:1006A000E040E1F700C000000FB6F894DEBF0FBED7
:1006B000CDBFA8CECF93C82F0E940C0588E70E941B
:1006C000140580E00E9414058C2F0E941405CF9120
:1006D0000C941E0580E092E0E0E1F3E0DF019C0174
:1006E0001D9221503040E1F70895EF92FF920F9351
:1006F0001F93CF93DF9300E113E0C0E08C2F806B5A
:100700000E945A0380E00E945A0380E10E945A032B
:100710000E940C0588E70E94140580E40E941405DD
:100720007801D0E0F70181917F010E941405DF5F1D
:10073000D038C1F70E941E05CF5F00581F4FC4304C
:10074000E9F6DF91CF911F910F91FF90EF900895FF
:100750000E9403058EEA0E945A0380E20E945A0317
:1007600080E00E945A0380EB0E945A0388EC0E94AA
:100770005A0380E00E945A0380E10E945A0380E4F9
:100780000E945A0381E80E945A038FE70E945A038D
:1007900081EA0E945A0386EA0E945A0388EA0E946C
:1007A0005A038FE10E945A0384EA0E945A0383EDA0
:1007B0000E945A0380E00E945A0385ED0E945A036A
:1007C00080E80E945A0389ED0E945A0381EF0E943B
:1007D0005A038AED0E945A0382E00E945A038BED6D
:1007E0000E945A0380E40E945A038DE80E945A0333
:1007F00084E10E945A038FEA0E945A0380E092E04B
:10080000E0E1F3E0DF019C011D9221503040E1F76F
:100810000C94750387FD1FC06032E8F4962F9695FF
:1008200096959695E82FF0E080E8989FE00DF11DF1
:100830001124677081E090E001C0880F6A95EAF7A3
:10084000E05FFC4F442319F09081892B03C0809511
:1008500090818923808308952F923F924F925F92D7
:100860006F927F928F929F92AF92BF92CF92DF92C0
:10087000EF92FF920F931F93CF93DF9300D01F92BD
:10088000CDB7DEB7682E362E722E822F880F820FDC
:10089000582E550C7A01F70181917F01882309F4C4
:1008A00049C090EE980F9F3510F0650CF4CF90E0A2
:1008B000809745E0489F9001499F300D1124265DA7
:1008C0003E4F3B832A83590185E0A80EB11C062DBB
:1008D000EA81FB81C190FB83EA83272C200ED12C77
:1008E000021511F1132D812C912CC601082C02C088
:1008F000959587950A94E2F7F82FF170F983472CC4
:10090000410E411639F04981612F802F0E940A045F
:100910001F5FF7CF2FEF821A920A142D38E083164B
:10092000910419F70F5FDCCF8A819B818A159B05A3
:1009300079F6BBCF0F900F900F90DF91CF911F9161
:100940000F91FF90EF90DF90CF90BF90AF909F906E
:100950008F907F906F905F904F903F902F90089571
:100960008F929F92AF92BF92CF92DF92EF92FF92BF
:100970000F931F93CF93DF93CDB7DEB760970FB67A
:10098000F894DEBF0FBECDBFD82EC62E49015A0146
:10099000F02E20E030E0A901C501B4010E94B105AC
:1009A00087FF0BC08DE28983C501B40190588E0189
:1009B0000E5F1F4F2F2D40E007C08E010F5F1F4FAE
:1009C0002F2D40E0C501B4010E9447072E2DAE0136
:1009D0004F5F5F4F6C2D8D2D0E942C040E9475037C
:1009E00060960FB6F894DEBF0FBECDBFDF91CF91FA
:1009F0001F910F91FF90EF90DF90CF90BF90AF903D
:100A00009F908F9008951092B90088E48093B80069
:100A100084E08093BC00089584EA8093BC008091B8
:100A2000BC0087FFFCCF08958093BB0084E88093CF
:100A3000BC008091BC0087FFFCCF089584E98093BF
:100A4000BC000895A1E21A2EAA1BBB1BFD010DC01C
:100A5000AA1FBB1FEE1FFF1FA217B307E407F5076E
:100A600020F0A21BB30BE40BF50B661F771F881F4A
:100A7000991F1A9469F760957095809590959B01E0
:100A8000AC01BD01CF0108955058BB27AA270E9491
:100A90005C050C94A0060E94920638F00E9499060C
:100AA00020F039F49F3F19F426F40C948F060EF4CD
:100AB000E095E7FB0C948906E92F0E94B10658F3F4
:100AC000BA17620773078407950720F079F4A6F533
:100AD0000C94D3060EF4E0950B2EBA2FA02D0B012B
:100AE000B90190010C01CA01A0011124FF27591B73
:100AF00099F0593F50F4503E68F11A16F040A22F79
:100B0000232F342F4427585FF3CF469537952795E9
:100B1000A795F0405395C9F77EF41F16BA0B620BE8
:100B2000730B840BBAF09150A1F0FF0FBB1F661F2F
:100B3000771F881FC2F70EC0BA0F621F731F841F72
:100B400048F4879577956795B795F7959E3F08F098
:100B5000B0CF9395880F08F09927EE0F979587955A
:100B600008950E94650608F481E008950E94CA0570
:100B70000C94A0060E94990658F00E94920640F03C
:100B800029F45F3F29F00C94890651110C94D40686
:100B90000C948F060E94B10668F39923B1F3552394
:100BA00091F3951B550BBB27AA2762177307840780
:100BB00038F09F5F5F4F220F331F441FAA1FA9F316
:100BC00035D00E2E3AF0E0E832D091505040E69504
:100BD000001CCAF72BD0FE2F29D0660F771F881F65
:100BE000BB1F261737074807AB07B0E809F0BB0B58
:100BF000802DBF01FF2793585F4F3AF09E3F51056C
:100C000078F00C9489060C94D4065F3FE4F3983E88
:100C1000D4F3869577956795B795F7959F5FC9F754
:100C2000880F911D9695879597F90895E1E0660FD5
:100C3000771F881FBB1F621773078407BA0720F04E
:100C4000621B730B840BBA0BEE1F88F7E0950895B7
:100C5000E89409C097FB3EF4909580957095619556
:100C60007F4F8F4F9F4F9923A9F0F92F96E9BB270C
:100C70009395F695879577956795B795F111F8CF88
:100C8000FAF4BB0F11F460FF1BC06F5F7F4F8F4FF3
:100C90009F4F16C0882311F096E911C0772321F0E9
:100CA0009EE8872F762F05C0662371F096E8862F81
:100CB00070E060E02AF09A95660F771F881FDAF7D8
:100CC000880F9695879597F90895990F0008550F05
:100CD000AA0BE0E8FEEF16161706E807F907C0F0C2
:100CE00012161306E407F50798F0621B730B840BCA
:100CF000950B39F40A2661F0232B242B252B21F4A4
:100D000008950A2609F4A140A6958FEF811D811D43
:100D1000089597F99F6780E870E060E008959FEF7D
:100D200080EC089500240A94161617061806090682
:100D3000089500240A941216130614060506089551
:100D4000092E0394000C11F4882352F0BB0F40F4D9
:100D5000BF2B11F460FF04C06F5F7F4F8F4F9F4F19
:100D6000089557FD9058440F551F59F05F3F71F09B
:100D70004795880F97FB991F61F09F3F79F0879502
:100D80000895121613061406551FF2CF4695F1DF8B
:100D900008C0161617061806991FF1CF869571051B
:100DA000610508940895E894BB2766277727CB014F
:100DB00097F908950E94ED060C94A0060E949206F1
:100DC00038F00E94990620F0952311F00C948906C2
:100DD0000C948F0611240C94D4060E94B10670F373
:100DE000959FC1F3950F50E0551F629FF001729FD0
:100DF000BB27F00DB11D639FAA27F00DB11DAA1FDF
:100E0000649F6627B00DA11D661F829F2227B00D2B
:100E1000A11D621F739FB00DA11D621F839FA00DB6
:100E2000611D221F749F3327A00D611D231F849F06
:100E3000600D211D822F762F6A2F11249F5750405D
:100E40009AF0F1F088234AF0EE0FFF1FBB1F661FD8
:100E5000771F881F91505040A9F79E3F510580F0A1
:100E60000C9489060C94D4065F3FE4F3983ED4F3C7
:100E7000869577956795B795F795E7959F5FC1F745
:100E8000FE2B880F911D9695879597F90895EF92FF
:100E90000F931F93CF93DF93E80147FD02C034E027
:100EA00001C034E1042E000C550B57FF03C05195CF
:100EB00041955109E32E022F242FAE010E9478099B
:100EC000CE01DF91CF911F910F91EF900895AEE089
:100ED000B0E0EDE6F7E00C94680C0D891E898F896F
:100EE000988D26E02C831A83098397FF02C080E047
:100EF00090E801979E838D83AE01455E5F4F698DBB
:100F00007A8DCE0101960E9497074D815E8157FD33
:100F10000AC02F813885421753070CF49A01F80153
:100F2000E20FF31F10822E96E4E00C94840CABE0E9
:100F3000B0E0EDE9F7E00C945A0C6C017B018A01FA
:100F4000FC0117821682838181FFCCC1CE010196FC
:100F50003C01F6019381F70193FD859193FF819107
:100F60007F01882309F4BAC1853239F493FD859154
:100F700093FF81917F01853229F4B60190E00E94B0
:100F8000C00BE7CF912C212C312CFFE1F315D8F0C9
:100F90008B3279F038F4803279F08332A1F4232D4A
:100FA00020611DC08D3261F0803369F4232D2160F2
:100FB00016C0832D8260382EE32DE4603E2E2AC0B9
:100FC000F32DF8601DC037FC2DC020ED280F2A300E
:100FD00040F08E32B9F436FC81C1232D2064322ECC
:100FE00019C036FE06C08AE0989E200D1124922E6C
:100FF00011C0EAE02E9E200D1124222EF32DF06266
:101000003F2E08C08C3621F4832D8068382E02C014
:10101000883641F4F70193FD859193FF81917F011B
:101020008111B3CF982F9F7D9554933028F40C5F96
:101030001F4F9FE399830DC0833631F0833771F0E2
:10104000833509F059C021C0F801808189830E5F82
:101050001F4F88248394912C530113C02801F2E080
:101060004F0E511CF801A080B18036FE03C0692DDF
:1010700070E002C06FEF7FEFC5010E94B50B4C011D
:101080008201F32DFF773F2E16C0280122E0420E89
:10109000511CF801A080B18036FE03C0692D70E0BC
:1010A00002C06FEF7FEFC5010E94AA0B4C01F32D28
:1010B000F0683F2E820133FC1BC0822D90E0881621
:1010C0009906B0F4B60180E290E00E94C00B2A9429
:1010D000F4CFF50137FC859137FE81915F01B601B0
:1010E00090E00E94C00B21102A9421E0821A9108FE
:1010F0008114910471F7E8C0843611F0893641F506
:10110000F80137FE07C060817181828193810C5F95
:101110001F4F08C060817181072E000C880B990B4E
:101120000E5F1F4FF32DFF763F2E97FF09C090955E
:101130008095709561957F4F8F4F9F4FF0683F2E40
:101140002AE030E0A3010E94FC0B882E861845C0DF
:10115000853731F4232D2F7EB22E2AE030E025C0D2
:10116000932D997FB92E8F36C1F018F4883579F018
:10117000B5C0803719F0883721F0B0C0E92FE061A1
:10118000BE2EB4FE0DC0FB2DF460BF2E09C034FE90
:101190000AC0292F2660B22E06C028E030E005C024
:1011A00020E130E002C020E132E0F801B7FE07C0E4
:1011B00060817181828193810C5F1F4F06C06081C5
:1011C000718180E090E00E5F1F4FA3010E94FC0B35
:1011D000882E8618FB2DFF773F2E36FE0DC0232D5F
:1011E0002E7FA22E891458F434FE0BC032FC09C0A5
:1011F000832D8E7EA82E05C0B82CA32C03C0B82C3E
:1012000001C0B92CA4FE0FC0FE01E80DF11D8081C4
:10121000803321F49A2D997EA92E09C0A2FE06C022
:10122000B394B39404C08A2D867809F0B394A3FCD8
:1012300011C0A0FE06C0B21488F4280C922C9B1892
:101240000EC0B21460F4B60180E290E00E94C00BC0
:10125000B394F7CFB21418F42B1802C0982C212C99
:10126000A4FE10C0B60180E390E00E94C00BA2FE75
:1012700017C0A1FC03C088E790E002C088E590E0B9
:10128000B6010CC08A2D867859F0A1FE02C08BE20F
:1012900001C080E2A7FC8DE2B60190E00E94C00B85
:1012A000891438F4B60180E390E00E94C00B9A9450
:1012B000F7CF8A94F301E80DF11D8081B60190E02B
:1012C0000E94C00B8110F5CF222009F442CEB60156
:1012D00080E290E00E94C00B2A94F6CFF60186814E
:1012E000978102C08FEF9FEF2B96E2E10C94760C72
:1012F000A9E0B0E0EEE7F9E00C94600C6A01122F6F
:10130000B02E2BE3201720F0FF24F394F00E02C040
:101310002CE3F22E0F2D27E0AE014F5F5F4F0E94AE
:10132000D20ABC014981842F8970813031F0E1FCFF
:1013300006C0E0FE06C090E205C09DE203C09BE24D
:1013400001C090E05E2D507143FF3CC0911102C07E
:1013500083E001C084E0811718F4212F281B01C00D
:1013600020E051110BC0F601822F30E2882319F0E2
:1013700031938150FBCFC20ED11C20E0992329F07C
:10138000D6019C93F60131966F01C6010396E2FEE9
:101390000AC03EE4D6013C9341E411964C93119768
:1013A00012963C9306C03EE6F601308341E6418347
:1013B0003283FC01322F40E2332309F442C04193CF
:1013C0003150FACF42FF44C0911102C083E001C006
:1013D00084E0811718F4212F281B01C020E051114F
:1013E0000BC0F601822F30E2882319F0319381502F
:1013F000FBCFC20ED11C20E0992329F0D6019C938B
:10140000F60131966F01C6010396E2FE0BC039E486
:10141000D6013C933EE411963C93119736E4129624
:101420003C9307C039E6F60130833EE6318336E669
:101430003283FC01322F40E2332319F041933150C3
:10144000FBCFFC01E20FF11D10828EEF9FEFA6C0D3
:1014500021E030E0911102C020E030E016161706BE
:101460001CF4FB01319602C0E1E0F0E02E0F3F1FBB
:10147000BB2021F0EB2DF0E0319602C0E0E0F0E07F
:101480002E0F3F1FE12FF0E02E173F071CF4121B19
:10149000212F01C020E08E2D887159F4F601822F92
:1014A00030E2882319F031938150FBCFC20ED11C5A
:1014B00020E0992329F0D6019C93F60131966F0123
:1014C00051110BC0F601822F90E3882319F09193FC
:1014D0008150FBCFC20ED11C20E00F2D060F9A8148
:1014E000342F307144FF03C0913309F401501016BA
:1014F00024F4093018F008E001C001E0AB0177FFE7
:1015000002C040E050E0FB01E41BF50BA1E0B0E0BD
:10151000AC0FBD1FEA0FFB1F8EE2A82E4B01801AF5
:1015200091080B2D10E01195019511094F3FBFEF68
:101530005B0721F4D601AC9211966D016417750713
:101540002CF08416950614F4818101C080E341508B
:1015500051093196D60111967D014017510724F0AB
:10156000D6018C936701E2CF6417750739F496337F
:1015700020F4953319F4311101C081E3F601808321
:10158000F701822F90E2882319F091938150FBCFCD
:10159000F701E20FF11D108280E090E02996ECE067
:1015A0000C947C0C283008F027E03327DA01990FDF
:1015B000311D87FD916000966105710539F4326037
:1015C0002E5F3D9330E32A95E1F708959F3F30F079
:1015D00080387105610509F03C5F3C5F3D939130B7
:1015E00008F08068911DDF93CF931F930F93FF92B4
:1015F000EF92192F987F9695E92F96959695E90F7A
:10160000FF27EE53FF4F99273327EE24FF24A7012E
:10161000E70105900894079428F4360FE71EF81E9A
:10162000491F511D660F771F881F991F0694A1F748
:101630000590079428F4E70EF81E491F561FC11D98
:10164000770F881F991F661F0694A1F705900794CE
:1016500028F4F80E491F561FC71FD11D880F991F68
:10166000661F771F0694A1F70590079420F4490F91
:10167000561FC71FD81F990F661F771F881F069414
:10168000A9F784911095177041F0D695C795579595
:101690004795F794E7941A95C1F7E8E6F0E0689467
:1016A0001590159135916591959105907FE273950F
:1016B000E118F10A430B560BC90BD009C0F7E10C36
:1016C000F11E431F561FC91FD01D7EF4703311F445
:1016D0008A95E6CFE894015030F0080F0AF400270D
:1016E000021708F4202F2395022F7A3328F079E38C
:1016F0007D932A95E9F710C07D932A9589F6069483
:1017000097956795379517951794E118F10A430B4C
:10171000560BC90BD00998F023957E9173957A33B7
:1017200008F070E37C932013B8F77E9170617D938D
:1017300030F0839571E37D9370E32A95E1F71124EE
:10174000EF90FF900F911F91CF91DF91992787FD27
:1017500090950895FC010590615070400110D8F7F4
:10176000809590958E0F9F1F0895FC0161507040E9
:1017700001900110D8F7809590958E0F9F1F0895C6
:101780000F931F93CF93DF93FB01238121FD03C0B0
:101790008FEF9FEF2CC022FF16C046815781248116
:1017A00035814217530744F4A081B1819D012F5F19
:1017B0003F4F318320838C93268137812F5F3F4FAA
:1017C0003783268314C08B01EC01FB010084F18573
:1017D000E02D0995892BE1F6D80116968D919C9103
:1017E0001797019617969C938E931697CE01DF91CB
:1017F000CF911F910F910895FA01AA27283051F136
:10180000203181F1E8946F936E7F6E5F7F4F8F4F31
:101810009F4FAF4FB1E03ED0B4E03CD0670F781F90
:10182000891F9A1FA11D680F791F8A1F911DA11D75
:101830006A0F711D811D911DA11D20D009F46894AE
:101840003F912AE0269F11243019305D3193DEF656
:10185000CF010895462F4770405D4193B3E00FD00C
:10186000C9F7F6CF462F4F70405D4A3318F0495DF7
:1018700031FD4052419302D0A9F7EACFB4E0A695DA
:101880009795879577956795BA95C9F700976105FC
:10189000710508959B01AC010A2E06945795479552
:1018A00037952795BA95C9F7620F731F841F951F47
:1018B000A01D08952F923F924F925F926F927F9258
:1018C0008F929F92AF92BF92CF92DF92EF92FF9250
:1018D0000F931F93CF93DF93CDB7DEB7CA1BDB0BFC
:1018E0000FB6F894DEBF0FBECDBF09942A883988A1
:1018F00048885F846E847D848C849B84AA84B984A8
:10190000C884DF80EE80FD800C811B81AA81B981B3
:10191000CE0FD11D0FB6F894DEBF0FBECDBFED01C7
:061920000895F894FFCFCA
:1019260025732D257300497065616B2020202028C2
:101936006D412920202049726D7300202020204609
:101946007265713A202573487A0000000000000095
:10195600005F00000007000700147F147F14242A8C
:101966007F2A122313086462364955225000050364
:101976000000001C2241000041221C0014083E0801
:101986001408083E08080050300000080808080837
:10199600006060000020100804023E5149453E00E8
:1019A600427F400042615149462141454B3118145E
:1019B600127F1027454545393C4A4949300171098E
:1019C60005033649494936064949291E0036360077
:1019D6000000563600000814224100141414141492
:1019E60000412214080201510906324979413E7E1E
:1019F6001111117E7F494949363E414141227F41BD
:101A060041221C7F494949417F090909013E414953
:101A1600497A7F0808087F00417F41002040413F06
:101A2600017F081422417F404040407F020C027F24
:101A36007F0408107F3E4141413E7F090909063E69
:101A46004151215E7F09192946464949493101011B
:101A56007F01013F4040403F1F2040201F3F40384C
:101A6600403F63140814630708700807615149452D
:101A760043007F41410002040810200041417F00DD
:101A860004020102044040404040000307080020D1
:101A9600545454787F4844443838444444203844A5
:101AA60044487F3854545418087E0901020C525297
:101AB600523E7F0804047800447D40002040443DA7
:101AC600007F1028440000417F40007C0418047801
:101AD6007C0804047838444444387C1414140808F8
:101AE6001414187C7C080404084854545420043FF9
:101AF6004440203C4040207C1C2040201C3C403080
:101B0600403C44281028440C5050503C4464544CEB
:101B160044000836410000007F00000041360800FE
:0A1B260002010204020000000000AA
:00000001FF
